:020000020000FC
:040000000C9422003A
:04000C000C948701C8
:100040000C9482010FEF0DBF18E01EBF3F065B4FFF
:10005000666D7D077F6F773971763706289A20980D
:10006000299A21982A9A22980FEF07B9249A2C9856
:10007000239A2B98259A2D980FEF0AB90E947A019E
:1000800007E000936B0001E0009368007894BB27C1
:10009000F0E0ECE4EB0FB4912227332740E0C0E816
:1000A0008C2ECC27A0E090E080E070E060E050E093
:1000B000C0E01C2EC1E00C2EC0E03C2EC1E02C2E76
:1000C000C0E07C2EC0E06C2EC0E05C2EC0E04C2E68
:1000D000D0E040FF0C9499000C94A80000C022339B
:1000E000C1F7222787FC1B9A87FE2B983395323065
:1000F00081F73327C9E05C130E947E045527C5E0D1
:100100006C130E9480046627C9E07C130E9482045D
:100110007727C5E08C130E9484048827C9E09C13CC
:100120000E9486049927C2E0AC130E949504AA2776
:10013000D0CF41FF0C949E000C94B70042FF0C946A
:10014000A3000C94CB0043FF0C94D9000C943E0107
:1001500041FF0C94AD000C94C10042FF0C94B2001E
:100160000C94D00043FF0C94EF000C94470142FF25
:100170000C94BC000C94D30043FF0C94FB000C9433
:100180004F0142FF0C94C6000C94D60043FF0C9420
:100190000E010C94560143FF0C9418010C94690055
:1001A00043FF0C94220143FF0C942B0143FF0C945A
:1001B0003501C0E88C2E0E9478020E9493020E94B2
:1001C000AE020E94C9020E94E4020E94FF02D0FF18
:1001D0002D98D0FD0E94700182CF0C946900882474
:1001E0000E941A030E9435030E9450030E946B0371
:1001F00076CF0C9469002B9A0E9486030E94A1037B
:100200000E94BC030E94D703D0FF0E946B01D0FD67
:100210000E946601882463CF0C94690088240E94A0
:10022000E4020E94FF020E940E0459CF0C94690060
:10023000CCE00E941A030E9435030E942A044FCF8B
:100240000C9469000E94BC030E94D7030E94F20331
:1002500046CF0C94690088240E94AE020E94C90215
:100260000E940E043CCF0C9469000E9450030E942F
:100270006B030E942A0433CF0C9469000E9486030A
:100280000E94A1030E94F2032ACF0C946900D0E0DF
:100290000E9462040E942A0422CF0C946900D1E0DB
:1002A0000E9462040E9446040C94690088242B9AE0
:1002B0002D9A0E94AE020E94C9020E94E4020E948E
:1002C000FF020E94F2030BCF0C9469000E946204AB
:1002D0000E94460408950E9462040E942A04089520
:1002E0007A120895691208955812089547120895D0
:1002F0004BE0089505E005BD03E606BD01E000936F
:100300006E00089513E616BDA89A239518950F93CD
:100310000FB70F9340FF0C948F010C949E0141FF87
:100320000C9494010C94AD0142FF0C9499010C942F
:10033000C10143FF0C94D5010C94310241FF0C9490
:10034000A3010C94B70142FF0C94A8010C94C601C0
:1003500043FF0C94E0010C943E0242FF0C94B20166
:100360000C94CB0143FF0C94E8010C94460242FF2D
:100370000C94BC010C94D00143FF0C94F0010C943C
:100380004E0243FF0C94FD010C94590243FF0C9460
:100390000A020C94590243FF0C9417020C94590260
:1003A00043FF0C9424020C94590203B100FF41E076
:1003B00003B101FF42E003B102FF43E00C94590294
:1003C00003B100FF40E003B102FF47E00C94590283
:1003D00003B102FF45E003B101FF40E00C94590274
:1003E00003B100FF0C94450503B101FF0C945C05BB
:1003F00003B102FF46E00C94590203B102FF41E051
:1004000003B100FF0C94FF0503B101FF0C947A06C1
:100410000C94590203B102FF48E003B100FF0C94B1
:100420009B0503B101FF0C94B2050C94590203B172
:1004300002FF40E003B100FF0C941F0503B101FF70
:100440000C9433050C94590203B102FF44E003B14C
:1004500000FF0C94CC0503B101FF0C94E5050C944E
:10046000590203B102FF49E003B100FF0C94730588
:1004700003B101FF0C9487050C94590203B102FFEC
:1004800042E003B100FF4AE00C94590203B102FFBD
:1004900042E003B101FF49E00C94590203B102FFAD
:1004A0000C9454020C945902D0E040E02D980C9426
:1004B0005902D89A0F910FBF0F911895309A319A1F
:1004C000329A339A349A359A1C9A4A9A4B9A4C9A91
:1004D0004D9A4E9A4F9A0895B52FF0E0ECE4EB0F49
:1004E000B491B6FD2C9AB6FF2C98B8B94F9A0895DE
:1004F0005A985B985C985D985E98B52FF0E0ECE4B4
:10050000EB0FB4915A985B985C985D985E98B6FD35
:100510002C9AB6FF2C98B8B95F9A5A985B985C9859
:100520005D985E9808955A985B985C985D985F987E
:10053000B62FF0E0ECE4EB0FB4915A985B985C981E
:100540005D985F98B6FD2C9AB6FF2C98B8B95E9A64
:100550005A985B985C985D985F9808955A985B9854
:100560005C985E985F98B72FF0E0ECE4EB0FB491E5
:100570005A985B985C985E985F98B6FD2C9AB6FF87
:100580002C98B8B95D9A5A985B985C985E985F9879
:1005900008955A985B985D985E985F98B82FF0E040
:1005A000ECE4EB0FB4915A985B985D985E985F9875
:1005B000B6FD2C9AB6FF2C98B8B95C9A5A985B98FD
:1005C0005D985E985F9808955A985C985D985E98DB
:1005D0005F98B92FF0E0ECE4EB0FB4915A985C9877
:1005E0005D985E985F98B6FD2C9AB6FF2C98B8B9C6
:1005F0005B9A5A985C985D985E985F9808955B98AE
:100600005C985D985E985F98BA2FF0E0ECE4EB0F91
:10061000B4915B985C985D985E985F98B6FD2C9A53
:10062000B6FF2C98B8B95A9A5B985C985D985E981A
:100630005F9808955D985C985A985E985F98B02D81
:10064000F0E0ECE4EB0FB4915D985C985A985E98FA
:100650005F98B6FD2C9AB6FF2C98B8B95B9A5D9856
:100660005C985A985E985F9808955B985D985C983E
:100670005E985F98B12DF0E0ECE4EB0FB4915B98DD
:100680005D985C985E985F98B6FD2C9AB6FF2C98A2
:10069000B8B95A9A5B985D985C985E985F9808958F
:1006A0005C985B985A985E985F98B22DF0E0ECE405
:1006B000EB0FB4915C985B985A985E985F98B6FD82
:1006C0002C9AB6FF2C98B8B95D9A5C985B985A98AA
:1006D0005E985F9808955A985D985B985E985F98C9
:1006E000B32DF0E0ECE4EB0FB4915A985D985B9871
:1006F0005E985F98B6FD2C9AB6FF2C98B8B95C9AB4
:100700005A985D985B985E985F9808955C985B989E
:100710005A985E985F98B42DF0E0ECE4EB0FB4913A
:100720005C985B985A985E985F98B6FD2C9AB6FFD5
:100730002C98B8B95D9A5C985B985A985E985F98C7
:1007400008955D985B985A985E985F98B52DF0E093
:10075000ECE4EB0FB4915D985B985A985E985F98C3
:10076000B6FD2C9AB6FF2C98B8B95C9A5D985B9848
:100770005A985E985F9808955C985D985A985E982C
:100780005F98B62DF0E0ECE4EB0FB4915C985D98C7
:100790005A985E985F98B6FD2C9AB6FF2C98B8B917
:1007A0005B9A5C985D985A985E985F9808955C98FB
:1007B0005B985D985E985F98B72DF0E0ECE4EB0FE6
:1007C000B4915C985B985D985E985F98B6FD2C9AA2
:1007D000B6FF2C98B8B95A9A5C985B985D985E9869
:1007E0005F980895CAE05A985C985B985E985D9807
:1007F000BC2FF0E0ECE4EB0FB4915A985C985B9856
:100800005E985D98B6FD2C9AB6FF2C98B8B95F9AA1
:100810005A985C985B985E985D980895CDE05A98D8
:100820005C985B985E985D98BC2FF0E0ECE4EB0F71
:10083000B4915A985C985B985E985D98B6FD2C9A36
:10084000B6FF2C98B8B95F9A5A985C985B985E98F6
:100850005D980895CCE05A985C985B985E985D9896
:10086000BC2FF0E0ECE4EB0FB4915A985C985B98E5
:100870005E985D98B6FD2C9AB6FF2C98B8B95F9A31
:100880005A985C985B985E985D980895CEE05A9867
:100890005C985B985E985D98BC2FF0E0ECE4EB0F01
:1008A000B4915A985C985B985E985D98B6FD2C9AC6
:1008B000B6FF2C98B8B95F9A5A985C985B985E9886
:1008C0005D980895C0E05A985C985B985F985D9831
:1008D000BC2FF0E0ECE4EB0FB4915A985C985B9875
:1008E0005F985D98B6FD2C9AB6FF2C98B8B95E9AC1
:1008F0005A985C985B985F985D9808955395E9CBFA
:100900006395E7CB7395E5CB8395E3CBC2E0AC135E
:100910000E949304C3E09C130E9493049927AA2782
:100920000E949704D6CB9395D4CBA395D2CBC0E0AD
:10093000C31167C052C00394CCCB1394CACBC1E09F
:100940003C120E94AB04C2E02C120E94B104C1E030
:100950002C2E3324BECBC9E02C120E94B1042224D9
:1009600002C02394B6CBC2E02C120E94B9043324F7
:10097000B0CB3394AECBC9E00C120E949B04002490
:10098000C3E01C120E949D041124C1E00C2EA1CBD7
:10099000C9E00C120E949B040024C3E01C120E94B8
:1009A0009D041124C1E00C2E94CBC9E00C120E94CE
:1009B0009B040024C2E01C120E949D041124C1E08B
:1009C0000C2E87CBC2E01C12F0CFC8E00C120E94A4
:1009D0009B04C1E00C2E1124B2CFC22DC130C9F04E
:1009E000C23081F3C330A9F0C430F1F0C53089F0D2
:1009F000C630D1F0C73069F0C83059F0C930A1F025
:100A000068CBC22DC03029F0C13071F0C23009F07E
:100A100060CBC3E01C12AFCFC1E00C120E949B045C
:100A2000C1E00C2E11248BCFC3E01C12B1CFC0E06B
:100A30000C120E949B04C1E00C2E112480CFC9E04F
:100A40007C130C94260577270C94290573950C9438
:100A50005902C5E08C130C94300588270C94590278
:100A600083950C945902C0E07C130C943F0579E007
:100A7000C0E08C130C94420585E00C9459027A95E1
:100A80000C9459028A950C945902C2E0AC130C9450
:100A90005105C3E09C130C9451059927AA270C9487
:100AA0005902C9E09C130C9459059927A3950C94FD
:100AB000590293950C945902C0E0AC130C946B0549
:100AC000C0E09C130C946805A2E093E00C945902DA
:100AD0009A950C945902C0E09C130C94680599E017
:100AE000AA950C945902C9E04C120C947A0544243E
:100AF0000C947D0543940C945902C5E05C120C944F
:100B0000840555240C94590253940C945902C0E066
:100B10004C120C949505C9E04C2EC0E05C120C946C
:100B20009805C5E05C2E0C9459024A940C94590225
:100B30005A940C945902C2E07C120C94A705C3E0AD
:100B40006C120C94A705662477240C945902C9E012
:100B50006C120C94AF05662473940C945902639440
:100B60000C945902C0E07C120C94C305C0E06C12D6
:100B70000C94C005C2E07C2EC3E06C2E0C9459028C
:100B80006A940C945902C0E06C120C94C005C9E040
:100B90006C2E7A940C945902C0E03C120C94DC0543
:100BA000C9E02C120C94D9052224C1E03C2E0C94EF
:100BB000590223940C945902C2E02C120C94D905CA
:100BC000C1E02C2E33240C945902C0E03C120C944A
:100BD000F305C1E02C120C94FC05C2E02C2EC1E000
:100BE0003C2E0C945902C0E02C120C94FC05C9E078
:100BF0002C2E3A940C9459022A940C945902C0E079
:100C0000C3110C9427060C941206C2E01C120C941B
:100C10006C06C8E00C120C945806C1E00C2E11248E
:100C20000C945902C22DC130D9F0C23071F3C330D7
:100C3000B9F0C43011F1C53099F0C630F1F0C730C9
:100C400079F0C83069F0C930C1F00C945902C22D56
:100C5000C03031F0C13089F0C23011F00C9459022B
:100C6000C3E01C120C944A06C1E00C120C94580606
:100C7000C1E00C2E11240C945902C3E01C120C94F8
:100C80005E06C0E00C120C945806C1E00C2E112434
:100C90000C945902C9E00C120C9458060024C3E0CD
:100CA0001C120C945B061124C1E00C2E0C9459020A
:100CB00003940C94590213940C945902C9E00C1239
:100CC0000C9458060024C3E01C120C945B061124FB
:100CD000C1E00C2E0C945902C9E00C120C94580679
:100CE0000024C2E01C120C945B061124C1E00C2EFF
:100CF0000C945902C0E0C3110C94AF060C949A06F0
:100D0000C0E0C1110C949106C1E0C0110C948E0694
:100D1000C8E00C2EC2E01C2E0C9459020A940C94CC
:100D20005902C0E00C120C948E06C9E00C2E1A94E5
:100D30000C945902C22DC130D9F0C23009F3C3302E
:100D4000B9F0C43079F1C53099F0C63059F1C730E7
:100D500079F0C83069F0C93029F10C945902C22DDC
:100D6000C03031F0C130F1F0C23011F00C945902B2
:100D7000C0E0C1110C94C906C1E0C0110C94C606B4
:100D8000C1E00C2EC3E01C2E0C9459020A940C9462
:100D90005902C0E00C120C94C606C9E00C2E1A943D
:100DA0000C945902C0E0C1110C94E306C1E0C011DB
:100DB0000C94E006C0E00C2EC3E01C2E0C945902EB
:100DC0000A940C945902C0E00C120C94E006C9E09D
:080DD0000C2E1A940C94590238
:00000001FF
